:020000040800F2
:100000000010002001040008351300083513000813
:1000100035130008351300083513000835130008A0
:100020003513000835130008351300083513000890
:100030003513000835130008351300083513000880
:100040003513000835130008351300083513000870
:100050003513000835130008AD11000835130008EA
:100060003513000835130008351300083513000850
:100070003513000835130008351300083513000840
:100080003513000835130008351300083513000830
:100090003513000835130008351300083513000820
:1004000062B640F20000C2F2000000210160043038
:1004100045F24601C0F255010160043045F25241F7
:10042000C0F24C010160043047F24251C7F27441FE
:100430000160043046F66F610160043041F2000053
:10044000C2F20000854640F20000C2F2000001B492
:1004500040F21400C2F200001421401801B401203F
:1004600001B400F064FE03B000F011FC40F204009F
:10047000C2F2000001B4012001B400F062FF0120CB
:1004800001B4F3E7022001B4F0E7032001B4EDE783
:10049000042001B4EAE7052001B4E7E7062001B42F
:1004A000E4E7072001B4E1E7082001B4DEE7092012
:1004B00001B4DBE70A2001B4D8E70B2001B4D5E78B
:1004C00070B4039C049D2B006340DB0FDB072A0004
:1004D0005200120E26007600360E921B7F32012645
:1004E000F6056D026D0AAD196402640AA4193100A3
:1004F0000020A54201DA6D00013A002D08DD002937
:1005000006DDA54201DB40182D1B6D004908F4E70C
:10051000002A03DC00223000002303E0FF2A01DB75
:10052000FF223000801BD2058018C01870BC7047B5
:1005300070B4039C049D2B006340DB0FDB072A0093
:100540005200120E26007600360E92197F3A0126CE
:10055000F6056D026D0AAD196402640AA419210042
:100560000906090E28004843240A000A210009064A
:10057000090E69434018240A000A21000906090EE1
:1005800069434018C00901210906884201DB40087F
:100590000132002A03DC00223000002303E0FF2A9E
:1005A00001DBFF223000801BD2058018C01870BC10
:1005B000704710B40199029802005200120E0B000D
:1005C0005B001B0ED41A00DA1A000123DB0540027F
:1005D000400AC0184902490AC918002C05DB09D095
:1005E000182C00DB0021E14004E06442182C00DB01
:1005F0000020E040401801242406A04201DB40080E
:100600000132FF2A01DBFF221800D205C01A801830
:1006100010BC704730B40299039802005200120EC9
:100620000D006D002D0E4002400A4902490A0123C7
:10063000DB05C018C918541B04DB01DC884201DB50
:10064000002306E02A006442050008002900012377
:10065000DB070125ED05002C04DD182C01DAE14053
:1006600000E00021401A03D100222800002304E00A
:10067000A84202DA4000013AFAE7002A02DC00222E
:1006800028000023D205401B8018C01830BC7047DA
:100690000098010000684000000E00D10860019839
:1006A000010000684000000E00D10860704700980B
:1006B0004000000EFF2804D10098400202D0012023
:1006C000704700207047009840001821C841FF285B
:1006D00002D0002070470120704700984000000EB3
:1006E0000AD0FF2807D001984000000E04D0FF2850
:1006F00001D0012070470020704700B5002001B4F0
:1007000002A801B404A801B4FFF7C2FF02B0029826
:1007100001B4049801B4FFF7E0FF02B078B3039886
:10072000002814DD0298002808DD039801B403981E
:1007300001B4FFF73EFF02B0009007E0039801B458
:10074000039801B4FFF766FF02B0009016E002982C
:10075000002808DD029801B4049801B4FFF75AFF9D
:1007600002B000900AE0039801B4039801B4FFF7C7
:1007700020FF02B00121C907401A009049E0039808
:1007800001B4FFF794FF01B028B9029801B4FFF754
:100790008EFF01B030B100A840F20001C7F6C07171
:1007A000016036E0039801B4FFF78DFF01B098B106
:1007B000029801B4FFF787FF01B068B1039802996E
:1007C000884202D10398009005E000A840F20001A1
:1007D000C7F6C07101601CE0039801B4FFF773FF16
:1007E00001B010B10398009013E0029801B4FFF734
:1007F0006AFF01B010B1029800900AE00398002847
:1008000002D10298009004E00298002801D10398D8
:100810000090009801B000BD00B5002001B402A80E
:1008200001B404A801B4FFF733FF02B0029801B489
:10083000049801B4FFF751FF02B078B30398002881
:1008400014DD0298002808DD039801B4039801B470
:10085000FFF7E0FE02B0009007E0039801B40398B0
:1008600001B4FFF7A6FE02B0009016E0029800283F
:100870000BDD039801B4039801B4FFF79AFE02B0B0
:100880000121C907401A009007E0029801B40498BA
:1008900001B4FFF7BFFE02B0009063E0039801B41B
:1008A000FFF705FF01B028B9029801B4FFF7FFFE7A
:1008B00001B030B100A840F20001C7F6C07101607C
:1008C00050E0039801B4FFF7FEFE01B098B1029822
:1008D00001B4FFF7F8FE01B068B1039802998842AD
:1008E00002D00398009005E000A840F20001C7F68E
:1008F000C071016036E0039801B4FFF7E4FE01B077
:1009000010B1039800902DE0029801B4FFF7DBFED0
:1009100001B078B102980121C90748404FF6FF7134
:10092000C7F6FF71884340F20001C7F68071401896
:10093000009017E00398002806D10298002803D100
:1009400000A8002101600DE00398002805D102985D
:100950000121C9074840009004E00298002801D115
:1009600003980090009801B000BD00B5002001B4CC
:1009700002A801B404A801B4FFF78AFE02B00298ED
:1009800001B4049801B4FFF7A8FE02B040B1039887
:1009900001B4039801B4FFF7CBFD02B0009050E022
:1009A000039801B4FFF783FE01B0F8B9029801B4CF
:1009B000FFF77DFE01B0C8B9039801B4FFF783FECD
:1009C00001B010B10298002801D0002000E0012001
:1009D00060B9029801B4FFF776FE01B010B1039838
:1009E000002801D0002000E0012030B100A840F232
:1009F0000001C7F6C071016023E0039801B4FFF75E
:100A000062FE01B028B9029801B4FFF75CFE01B0A4
:100A100070B10398029948404FF6FF71C7F6FF7115
:100A2000884340F20001C7F680714018009008E04A
:100A30000398002802D00298002802D100A80021C3
:100A40000160009801B000BD00B5002001B402A80B
:100A500001B404A801B4FFF71BFE02B0029801B470
:100A6000049801B4FFF739FE02B040B1039801B415
:100A7000039801B4FFF724FD02B0009065E00398ED
:100A800001B4FFF714FE01B0A8B9029801B4FFF752
:100A90000EFE01B078B9039801B4FFF714FE01B05F
:100AA00028B1029801B4FFF70EFE01B008B900208A
:100AB00000E0012030B100A840F20001C7F6C0718B
:100AC000016042E0039801B4FFF7FDFD01B070B191
:100AD0000398029948404FF6FF71C7F6FF718843AB
:100AE00040F20001C7F68071401800902DE0029896
:100AF00001B4FFF7E8FD01B018B100A800210160C2
:100B000023E0039800280DD10298002806D100A800
:100B100040F20001C7F6C071016002E000A80021A8
:100B2000016012E0029800280FD10398002806DD2A
:100B300000A840F20001C7F68071016005E000A83E
:100B400040F20001CFF680710160009801B000BD55
:100B50000298019902005200120E00D100200B00F1
:100B60005B001B0E00D10021FF2A03D102005202BC
:100B7000520A05D1FF2B07D10B005B025B0A03D0A1
:100B8000009A012A23D120E0009A002802DA0029E5
:100B900000DA06329200023A8842974417D114E0F4
:100BA00015D012E013DA10E011DC0EE00FDD0CE0DE
:100BB0000DDB0AE00BD108E009D006E007DD04E018
:100BC00005DB02E003DA00E001DC012070470020D1
:100BD000704770470098002805D100230120C00508
:100BE0007E2252421EE00121C907884204D103003F
:100BF0000120C005202215E0002803DA0123DB07CD
:100C0000404200E0002300220100002902DD4908E3
:100C10000132FAE71100183A01DDD04001E05242FA
:100C200090400A000121C905401A7E32D205801881
:100C3000C0187047009908004000000E00D1002144
:100C40000A005200120E7F3A08004002400A0123B7
:100C5000DB05C018002A12DB162A0BDC173A5242B9
:100C60000300D0405242203200290CDA93400AD0CF
:100C7000013008E0362A05DC173A904003E008000E
:100C8000C00F00E00020002900DA4042704762E215
:100C900040F20800C2F2000001B4022001B400F0EA
:100CA00050FB012001B4F3E7022001B4F0E7032078
:100CB00001B4EDE7042001B4EAE7052001B4E7E759
:100CC000062001B4E4E7072001B4E1E7082001B4FD
:100CD000DEE7092001B4DBE70A2001B4D8E70B20E6
:100CE00001B4D5E700B5029801B4029801B4FFF74A
:100CF0003CFE02B000BD00B5029801B4029801B4F8
:100D0000FFF7A2FE02B000BD00B5019801B4039840
:100D100001B4FFF799FE02B000BD00B5029801B41E
:100D2000029801B4FFF7E9FC02B000BD00B50298DB
:100D300001B4029801B4FFF76FFD02B000BD00B529
:100D4000019801B4039801B4FFF766FD02B000BD3D
:100D500000B5039801B4039801B4039801B4FFF7F8
:100D6000F7FE03B000BD00B5019801B4FFF762FFC4
:100D700001B000BD00B5019801B4FFF72BFF01B031
:100D800000BD009801990A6813005200120E121853
:100D900012065208FF20C005834313430B607047BF
:100DA000009801990A6813005200120E7F3A0260FF
:100DB0000120800783437F20C00503430B607047F9
:100DC00001980099026803000430013908DD04B479
:100DD00002681A60043004330139F9DC04BC1A607B
:100DE00070470099002904DB1F2902DC012088409C
:100DF00070470020704700990198884211DC1F2835
:100E00000FDC00290DDB1F2900DD1F21002800DA7F
:100E100000200A1A0120C00710411F394942C8406A
:100E20007047002070470198009903000138013095
:100E30000278002A02D00139F9DC0130C01A70476B
:100E4000019800990300023802300288002A02D07B
:100E50000139F9DC0230C01A400870470499029A3F
:100E6000019B0398984200DA030030B4002B09DD9F
:100E70000C78013115780132013B601B0FD1002C39
:100E8000F4D10CE0039A0599914202DC04DB0020C6
:100E900005E00698805C02E00498405C4042029ABB
:100EA0009200023A002897440AD00CE008D10AE0E8
:100EB00006DB08E004DD06E002DC04E000DA02E024
:100EC000012030BC7047002030BC70470499029A62
:100ED000019B0398984200DA030030B4002B09DD2F
:100EE0000C88023115880232013B601B11D1002CA5
:100EF000F4D10DE0039A059949005200914202DCB9
:100F000004DB002005E00698805A02E00498405A6D
:100F10004042029A9200023A002897440AD00CE01C
:100F200008D10AE006DB08E004DD06E002DC04E0AC
:100F300000DA02E0012030BC7047002030BC70476E
:100F400002980100019A130089070AD19B0708D172
:100F50000099042906DB0368136004300432043965
:100F6000F7E70099002905DD03781370013001329D
:100F70000139F9DC704700B5002001B405980399E8
:100F8000884203DD00A8002101700DE0069801B43D
:100F9000059801B407980499484301B4FFF7D0FFBE
:100FA00003B000A80121017000A8007801B000BDC5
:100FB00000B5039801B4069801B4069804998842D4
:100FC00000DD08000399484301B4FFF7B9FF03B0FF
:100FD00000BD6846704700B5002001B440F214001F
:100FE000C2F200000068009000980399401801B414
:100FF000FFF7EFFF403802BC814222DA039840F24B
:101000001401C2F200010A6812180A600098043044
:1010100004990860029800990860009804300090D4
:101020000398043803900398002809DD00200099F4
:101030000860009804300090039804380390F2E7A9
:1010400002E004980021016001B000BD00B500205D
:1010500001B4039803A9006808600398002818D019
:101060000398043800A90068086000980299884233
:101070000ED0009800280BD040F21800C2F20000F9
:10108000006800998900401800A900680860ECE732
:1010900001E0029800900098029988420CBF01205C
:1010A000002001B000BD00B5002001B400A800215F
:1010B00001600398002817D00398043800A900683D
:1010C00008600098029988420ED0009800280BD042
:1010D00040F21800C2F20000006800998900401830
:1010E00000A900680860ECE70098029988420CBFEC
:1010F0000120002001B000BD00B50298019988428E
:101100000ED0029800280BD040F21800C2F2000066
:10111000006802998900401802A900680860ECE79D
:101120000298019988420CBF0120002000BD00B543
:10113000029840F21401C2F200010860019840F2E6
:101140001C01C2F200010860039840F21801C2F2CB
:101150000001086000BD8CE040F20C00C2F200000B
:1011600001B4032001B400F0ECF8012001B4F3E76E
:10117000022001B4F0E7032001B4EDE7042001B43C
:10118000EAE7052001B4E7E7062001B4E4E7072019
:1011900001B4E1E7082001B4DEE7092001B4DBE790
:1011A0000A2001B4D8E70B2001B4D5E700B501202F
:1011B00040F21441C4F20101086040F22000C2F282
:1011C000000001680131016040F22000C2F200001D
:1011D00000688007800F0BE000282CD140F200004F
:1011E000C0F2C00040F21841C4F20201086026E0DB
:1011F0000128F1DB09DC40F24000C0F2800040F23F
:101200001841C4F20201086019E0022813DB09DC6E
:1012100040F28000C0F2400040F21841C4F20201E6
:1012200008600CE0032806D1C02040F21841C4F247
:101230000201086003E072B65A2001B4A7E700BDBE
:1012400030BF704700B5002001B400A84EF6105121
:10125000CEF20001096801600098042188434EF62F
:101260001051CEF200010860FFF7EAFFEDE701B090
:1012700000BD40F22000C2F200000021016040F2F7
:101280002400C2F2000043F61C01C4F20201096806
:10129000016040F22400C2F200000068032108430C
:1012A00043F61C01C4F20201086040F22400C2F2BD
:1012B000000040F20041C4F202010968016040F2FE
:1012C0002400C2F20000006845F2000108434AF21F
:1012D0000001884340F20041C4F20201086040F27C
:1012E0002400C2F2000040F20001C4F202010968C9
:1012F000016040F22400C2F200000068032188432C
:1013000040F20001C4F20201086040204EF20011D8
:10131000CEF200010860012040F20041C4F2010158
:101320000860012040F20841C4F201010860FFF7A3
:1013300089FFFEE7EFF3058001B500F001F801BD7C
:101340007047FFF7FDFFFFF75BF80098019991FBED
:10135000F0F213004343C91A01DA0918013A1000E8
:021360007047D4
:00000001FF
