:020000040800F2
:100000000010002001040008E11C0008E11C0008A9
:10001000E11C0008E11C0008E11C0008E11C0008CC
:10002000E11C0008E11C0008E11C0008E11C0008BC
:10003000E11C0008E11C0008E11C0008E11C0008AC
:10004000E11C0008E11C0008E11C0008E11C00089C
:1004000062B640F20000C2F2000000210160043038
:1004100045F24601C0F255010160043045F25241F7
:10042000C0F24C010160043044F24C31C0F244018E
:100430000160043041F20000C2F20000854640F243
:100440000000C2F2000001B440F21000C2F200004D
:1004500040F2CC11401801B4012001B400F064FE58
:1004600003B000F011FC40F20400C2F2000001B43D
:10047000012001B401F03BFC012001B4F3E70220AC
:1004800001B4F0E7032001B4EDE7042001B4EAE78A
:10049000052001B4E7E7062001B4E4E7072001B432
:1004A000E1E7082001B4DEE7092001B4DBE70A2018
:1004B00001B4D8E70B2001B4D5E770B4039C049DC8
:1004C0002B006340DB0FDB072A005200120E2600D0
:1004D0007600360E921B7F320126F6056D026D0AFC
:1004E000AD196402640AA41931000020A54201DAA2
:1004F0006D00013A002D08DD002906DDA54201DB73
:1005000040182D1B6D004908F4E7002A03DC002287
:100510003000002303E0FF2A01DBFF223000801BB4
:10052000D2058018C01870BC704770B4039C049D3D
:100530002B006340DB0FDB072A005200120E26005F
:100540007600360E92197F3A0126F6056D026D0A85
:10055000AD196402640AA41921000906090E2800D5
:100560004843240A000A21000906090E694340187D
:10057000240A000A21000906090E69434018C0092F
:1005800001210906884201DB40080132002A03DC10
:1005900000223000002303E0FF2A01DBFF223000AD
:1005A000801BD2058018C01870BC704710B4019928
:1005B000029802005200120E0B005B001B0ED41AB0
:1005C00000DA1A000123DB054002400AC018490284
:1005D000490AC918002C05DB09D0182C00DB0021C2
:1005E000E14004E06442182C00DB0020E0404018A9
:1005F00001242406A04201DB40080132FF2A01DB6E
:10060000FF221800D205C01A801810BC704730B401
:100610000299039802005200120E0D006D002D0E7B
:100620004002400A4902490A0123DB05C018C918E3
:10063000541B04DB01DC884201DB002306E02A00B6
:1006400064420500080029000123DB070125ED05B0
:10065000002C04DD182C01DAE14000E00021401AF2
:1006600003D100222800002304E0A84202DA40005F
:10067000013AFAE7002A02DC002228000023D20512
:10068000401B8018C01830BC7047009801000068FB
:100690004000000E00D10860019801000068400091
:1006A000000E00D10860704700984000000EFF283F
:1006B00004D10098400202D001207047002070470A
:1006C000009840001821C841FF2802D00020704740
:1006D0000120704700984000000E0AD0FF2807D084
:1006E00001984000000E04D0FF2801D0012070477F
:1006F0000020704700B5002001B402A801B404A88E
:1007000001B4FFF7C2FF02B0029801B4049801B42B
:10071000FFF7E0FF02B078B30398002814DD0298D9
:10072000002808DD039801B4039801B4FFF73EFFE9
:1007300002B0009007E0039801B4039801B4FFF7FA
:1007400066FF02B0009016E00298002808DD0298CB
:1007500001B4049801B4FFF75AFF02B000900AE018
:10076000039801B4039801B4FFF720FF02B0012100
:10077000C907401A009049E0039801B4FFF794FFBD
:1007800001B028B9029801B4FFF78EFF01B030B173
:1007900000A840F20001C7F6C071016036E003987E
:1007A00001B4FFF78DFF01B098B1029801B4FFF7D3
:1007B00087FF01B068B103980299884202D103987B
:1007C000009005E000A840F20001C7F6C07101608A
:1007D0001CE0039801B4FFF773FF01B010B1039858
:1007E000009013E0029801B4FFF76AFF01B010B166
:1007F000029800900AE00398002802D10298009025
:1008000004E00298002801D103980090009801B0FC
:1008100000BD00B5002001B402A801B404A801B4D1
:10082000FFF733FF02B0029801B4049801B4FFF758
:1008300051FF02B078B30398002814DD0298002815
:1008400008DD039801B4039801B4FFF7E0FE02B09D
:10085000009007E0039801B4039801B4FFF7A6FEE7
:1008600002B0009016E0029800280BDD039801B456
:10087000039801B4FFF79AFE02B00121C907401A9C
:10088000009007E0029801B4049801B4FFF7BFFE9E
:1008900002B0009063E0039801B4FFF705FF01B0D8
:1008A00028B9029801B4FFF7FFFE01B030B100A8EB
:1008B00040F20001C7F6C071016050E0039801B436
:1008C000FFF7FEFE01B098B1029801B4FFF7F8FE01
:1008D00001B068B103980299884202D00398009051
:1008E00005E000A840F20001C7F6C071016036E0E3
:1008F000039801B4FFF7E4FE01B010B10398009033
:100900002DE0029801B4FFF7DBFE01B078B1029848
:100910000121C90748404FF6FF71C7F6FF718843B0
:1009200040F20001C7F680714018009017E003986C
:10093000002806D10298002803D100A800210160F8
:100940000DE00398002805D102980121C90748400D
:10095000009004E00298002801D1039800900098CC
:1009600001B000BD00B5002001B402A801B404A884
:1009700001B4FFF78AFE02B0029801B4049801B4F2
:10098000FFF7A8FE02B040B1039801B4039801B488
:10099000FFF7CBFD02B0009050E0039801B4FFF7E1
:1009A00083FE01B0F8B9029801B4FFF77DFE01B0F3
:1009B000C8B9039801B4FFF783FE01B010B10298E3
:1009C000002801D0002000E0012060B9029801B4A5
:1009D000FFF776FE01B010B10398002801D0002087
:1009E00000E0012030B100A840F20001C7F6C0715C
:1009F000016023E0039801B4FFF762FE01B028B95B
:100A0000029801B4FFF75CFE01B070B1039802993F
:100A100048404FF6FF71C7F6FF71884340F200016E
:100A2000C7F680714018009008E00398002802D0B3
:100A30000298002802D100A800210160009801B0AE
:100A400000BD00B5002001B402A801B404A801B49F
:100A5000FFF71BFE02B0029801B4049801B4FFF73F
:100A600039FE02B040B1039801B4039801B4FFF716
:100A700024FD02B0009065E0039801B4FFF714FE76
:100A800001B0A8B9029801B4FFF70EFE01B078B921
:100A9000039801B4FFF714FE01B028B1029801B425
:100AA000FFF70EFE01B008B9002000E0012030B1D0
:100AB00000A840F20001C7F6C071016042E003984F
:100AC00001B4FFF7FDFD01B070B1039802994840F1
:100AD0004FF6FF71C7F6FF71884340F20001C7F679
:100AE0008071401800902DE0029801B4FFF7E8FDF6
:100AF00001B018B100A80021016023E0039800288C
:100B00000DD10298002806D100A840F20001C7F6D6
:100B1000C071016002E000A80021016012E00298AB
:100B200000280FD10398002806DD00A840F200013C
:100B3000C7F68071016005E000A840F20001CFF621
:100B400080710160009801B000BD02980199020017
:100B50005200120E00D100200B005B001B0E00D1D2
:100B60000021FF2A03D102005202520A05D1FF2BB5
:100B700007D10B005B025B0A03D0009A012A23D144
:100B800020E0009A002802DA002900DA06329200FA
:100B9000023A8842974417D114E015D012E013DAD4
:100BA00010E011DC0EE00FDD0CE00DDB0AE00BD1F4
:100BB00008E009D006E007DD04E005DB02E003DA27
:100BC00000E001DC0120704700207047704700986A
:100BD000002805D100230120C0057E2252421EE0DC
:100BE0000121C907884204D103000120C005202249
:100BF00015E0002803DA0123DB07404200E0002370
:100C000000220100002902DD49080132FAE7110043
:100C1000183A01DDD04001E0524290400A00012123
:100C2000C905401A7E32D2058018C0187047009955
:100C300008004000000E00D100210A005200120EF0
:100C40007F3A08004002400A0123DB05C018002A51
:100C500012DB162A0BDC173A52420300D0405242F4
:100C6000203200290CDA93400AD0013008E0362AFD
:100C700005DC173A904003E00800C00F00E00020B8
:100C8000002900DA4042704762E240F20800C2F2F6
:100C9000000001B4022001B401F029F8012001B4E0
:100CA000F3E7022001B4F0E7032001B4EDE70420EC
:100CB00001B4EAE7052001B4E7E7062001B4E4E760
:100CC000072001B4E1E7082001B4DEE7092001B400
:100CD000DBE70A2001B4D8E70B2001B4D5E700B563
:100CE000029801B4029801B4FFF73CFE02B000BDC7
:100CF00000B5029801B4029801B4FFF7A2FE02B059
:100D000000BD00B5019801B4039801B4FFF799FE46
:100D100002B000BD00B5029801B4029801B4FFF71B
:100D2000E9FC02B000BD00B5029801B4029801B41C
:100D3000FFF76FFD02B000BD00B5019801B4039844
:100D400001B4FFF766FD02B000BD00B5039801B421
:100D5000039801B4039801B4FFF7F7FE03B000BD98
:100D600000B5019801B4FFF762FF01B000BD00B506
:100D7000019801B4FFF72BFF01B000BD0098019965
:100D80000A6813005200120E121812065208FF20B1
:100D9000C005834313430B607047009801990A68AC
:100DA00013005200120E7F3A026001208007834335
:100DB0007F20C00503430B607047019800990268CB
:100DC00003000430013908DD04B402681A600430FD
:100DD00004330139F9DC04BC1A607047009900291A
:100DE00004DB1F2902DC0120884070470020704787
:100DF00000990198884211DC1F280FDC00290DDBC7
:100E00001F2900DD1F21002800DA00200A1A012016
:100E1000C00710411F394942C84070470020704741
:100E2000019800990300013801300278002A02D0AD
:100E30000139F9DC0130C01A7047019800990300AC
:100E4000023802300288002A02D00139F9DC02306F
:100E5000C01A400870470499029A019B039898426F
:100E600000DA030030B4002B09DD0C78013115786D
:100E70000132013B601B0FD1002CF4D10CE0039A2E
:100E80000599914202DC04DB002005E00698805CB5
:100E900002E00498405C4042029A9200023A002824
:100EA00097440AD00CE008D10AE006DB08E004DD34
:100EB00006E002DC04E000DA02E0012030BC70470A
:100EC000002030BC70470499029A019B0398984215
:100ED00000DA030030B4002B09DD0C8802311588DC
:100EE0000232013B601B11D1002CF4D10DE0039ABA
:100EF000059949005200914202DC04DB002005E024
:100F00000698805A02E00498405A4042029A9200A1
:100F1000023A002897440AD00CE008D10AE006DB28
:100F200008E004DD06E002DC04E000DA02E0012073
:100F300030BC7047002030BC704702980100019A15
:100F4000130089070AD19B0708D10099042906DB01
:100F500003681360043004320439F7E7009900296C
:100F600005DD03781370013001320139F9DC704777
:100F700000B5002001B405980399884203DD00A85C
:100F8000002101700DE0069801B4059801B407989E
:100F90000499484301B4FFF7D0FF03B000A8012132
:100FA000017000A8007801B000BD00B5039801B43D
:100FB000069801B406980499884200DD0800039958
:100FC000484301B4FFF7B9FF03B000BD684670475E
:100FD00000B5002001B440F21000C2F20000006829
:100FE000009000980399401801B4FFF7EFFF4038D4
:100FF00002BC814222DA039840F21001C2F20001E1
:101000000A6812180A60009804300499086002986F
:101010000099086000980430009003980438039009
:101020000398002809DD002000990860009804302A
:101030000090039804380390F2E702E0049800213E
:10104000016001B000BD00B5002001B4039803A900
:10105000006808600398002818D00398043800A995
:10106000006808600098029988420ED00098002815
:101070000BD040F21400C2F2000000680099890011
:10108000401800A900680860ECE701E002980090B1
:101090000098029988420CBF0120002001B000BDD9
:1010A00000B5002001B400A80021016003980028C9
:1010B00017D00398043800A90068086000980299C6
:1010C00088420ED0009800280BD040F21400C2F2E3
:1010D0000000006800998900401800A900680860B5
:1010E000ECE70098029988420CBF0120002001B073
:1010F00000BD00B50298019988420ED002980028E0
:101100000BD040F21400C2F200000068029989007E
:10111000401802A900680860ECE70298019988422B
:101120000CBF0120002000BD00B5029840F2100164
:10113000C2F200010860019840F21801C2F20001F9
:101140000860039840F21401C2F20001086000BD7B
:1011500000F0C1FD40F20C00C2F2000001B4032017
:1011600001B400F0C4FD012001B4F3E7022001B492
:10117000F0E7032001B4EDE7042001B4EAE705201D
:1011800001B4E7E7062001B4E4E7072001B4E1E792
:10119000082001B4DEE7092001B4DBE70A2001B42E
:1011A000D8E70B2001B4D5E700B5002001B401B4A5
:1011B00005988007800F0590039801A900680860D2
:1011C00000A80021016000981E282EDC0098401025
:1011D0000499202801D3002008E00122C006C00E97
:1011E00000B18240114014BF01200020C8B1019815
:1011F000009901B402B4FFF7F1FD01B0019901318A
:1012000001B402B4FFF7EAFD01B002BC014301BC26
:1012100088430599009AD206D20E02B19140084344
:101220000190009802300090CDE701980399086082
:1012300002B000BD00B5002001B4029800A900680A
:10124000086000980499884303990843029908604C
:1012500001B000BD00B5002001B4029800A90068EB
:1012600008600098039908430299086001B000BD26
:1012700000B5002001B4029800A900680860009839
:10128000039988430299086001B000BD00B50020B1
:1012900001B4029800A9006808600098039908400A
:1012A000039988420CBF0120002001B000BD00B5A9
:1012B0000020202201B4013A002AFBD11FA80021FE
:1012C00001601F981D280FDC1F9801A91F9A1E2A74
:1012D00003D372B6AD2001B454E7920089180860B8
:1012E0001F9801301F90ECE71FA8032101601F9891
:1012F0000B2810DC1F98043001A91F9A1E2A03D363
:1013000072B6B12001B43DE79200891808601F98B9
:1013100001301F90EBE701A848301121016001A8BE
:101320004C30102101601FA8142101601F9817285C
:1013300010DC1F98023801A91F9A1E2A03D372B627
:10134000B82001B41EE79200891808601F98013088
:101350001F90EBE700A8002101601FA80021016099
:101360001F98052800DD97E101A800991C39494222
:101370001E2903D372B6BD2001B403E7890040588B
:1013800000F2001040F21C01C2F200011F9A062A6E
:1013900003D372B6BD2001B4F4E644235A4389183E
:1013A000086001A800991C3949421E2903D372B66E
:1013B000BE2001B4E6E68900405840F21C01C2F2AA
:1013C00000011F9A062A03D372B6BE2001B4D9E6E3
:1013D00044235A4389180431086001A80099013157
:1013E0001E2903D372B6BF2001B4CBE68900405852
:1013F00000F2001040F21C01C2F200011F9A062AFE
:1014000003D372B6BF2001B4BCE644235A43891803
:101410000831086001A800991E2903D372B6C020C4
:1014200001B4AFE68900405800F2001040F21C0100
:10143000C2F200011F9A062A03D372B6C02001B47B
:10144000A0E644235A4389180C31086001A800998A
:101450001E2903D372B6C12001B493E68900405817
:1014600040F21C01C2F200011F9A062A03D372B691
:10147000C12001B486E644235A438918103108601C
:1014800001A800991D3949421E2903D372B6C22012
:1014900001B477E68900405800F2001040F21C01C8
:1014A000C2F200011F9A062A03D372B6C22001B409
:1014B00068E644235A4389181431086001A800994A
:1014C0001D3949421E2903D372B6C32001B459E61F
:1014D0008900405840F21C01C2F200011F9A062AFE
:1014E00003D372B6C32001B44CE644235A4389188F
:1014F0001831086001A800991D3949421E2903D3FB
:1015000072B6C42001B43DE68900405800F20030B4
:1015100040F21C01C2F200011F9A062A03D372B6E0
:10152000C42001B42EE644235A4389181C310860B4
:1015300001A800991C3949421E2903D372B6C5205F
:1015400001B41FE68900405800F2003040F21C014F
:10155000C2F200011F9A062A03D372B6C52001B455
:1015600010E644235A4389182031086001A80099E5
:101570001C3949421E2903D372B6C62001B401E6C4
:101580008900405800F2002040F21C01C2F2000124
:101590001F9A062A03D372B6C62001B4F2E544238B
:1015A0005A4389182431086001A8009901311E2985
:1015B00003D372B6C72001B4E4E58900405840F275
:1015C0001C01C2F200011F9A062A03D372B6C7207B
:1015D00001B4D7E544235A4389182831086001A88B
:1015E00000991E2903D372B6C82001B4CAE5890048
:1015F000405800F2003040F21C01C2F200011F9A74
:10160000062A03D372B6C82001B4BBE544235A436B
:1016100089182C31086001A800991E2903D372B6DD
:10162000C92001B4AEE58900405800F2002040F224
:101630001C01C2F200011F9A062A03D372B6C92008
:1016400001B49FE544235A4389183031086001A84A
:1016500000991D3949421E2903D372B6CA2001B42C
:1016600090E58900405800F2002040F21C01C2F2CF
:1016700000011F9A062A03D372B6CA2001B481E57D
:1016800044235A438918343108600098023000908E
:101690001F9801301F9063E640F21C00C2F2000068
:1016A000383040F20131016040F21C00C2F200000B
:1016B0007C3040F20731016040F21C00C2F20000B1
:1016C000C03040F20931016040F21C00C2F200005B
:1016D00000F2041040F20B31016040F21C00C2F233
:1016E00000003C3040F20121016040F21C00C2F2D7
:1016F0000000803040F20721016040F21C00C2F27D
:101700000000C43040F20921016040F21C00C2F226
:10171000000000F2081040F20B21016040F21C00B2
:10172000C2F20000403040F20F31016040F21C0074
:10173000C2F20000843040F20F21016040F21C0030
:10174000C2F20000C83040F20D31016040F21C00CE
:10175000C2F2000000F20C1040F20D21016040F2D4
:10176000B410C2F200003F21016040F2B410C2F296
:10177000000004300621016040F2B410C2F2000003
:10178000083040F25B41016040F2B410C2F2000048
:101790000C3040F24F41016040F2B410C2F2000040
:1017A000103040F26641016040F2B410C2F2000015
:1017B000143040F26D41016040F2B410C2F20000FA
:1017C000183040F27D41016040F2B410C2F20000D6
:1017D0001C302721016040F2B410C2F2000020301A
:1017E00040F27F41016040F2B410C2F200002430A8
:1017F00040F26F41016020B000BD00B50198C0B259
:1018000001B4FFF7EBFA01B001B402980012C00076
:1018100042F21441C4F20001401801B4FFF728FD60
:1018200002B000BD00B50198C0B201B4FFF7D6FA0E
:1018300001B001B402980012C00042F21441C4F297
:101840000001401801B4FFF705FD02B000BD00B56E
:10185000002001B401B440F2B410C2F200000499B7
:101860000A2903D372B6FC2001B48BE489004058E6
:10187000019000A80021016000980D284CDC009820
:101880000199202801D3002008E00122C006C00EE3
:1018900000B18240114014BF01200020D8B140F2B5
:1018A0001C00C2F200000399062903D372B6FF2080
:1018B00001B467E44422514340180099112903D32D
:1018C00072B6FF2001B45DE48900405801B4FFF70F
:1018D000A9FF01B01CE040F21C00C2F20000039915
:1018E000062904D372B640F2011001B44AE444223E
:1018F000514340180099112904D372B640F20110E7
:1019000001B43FE48900405801B4FFF776FF01B00D
:10191000009801300090AFE702B000BD00B502981A
:1019200001B4029801B4FFF7B1FC02B000B1F6E7D0
:1019300000BD00B5029801B4029801B4FFF7A6FCFF
:1019400002B00028F6D000BD00B5002001B4FFF7BA
:10195000AEFC072001B443F61C00C4F2020001B43F
:10196000FFF778FC02B0022001B448F20E7001B417
:1019700040F20000C4F2020001B4FFF715FC03B00E
:10198000002001B448F20E7001B440F20800C4F225
:10199000020001B4FFF708FC03B0002001B448F2D4
:1019A0000E7001B440F20C00C4F2020001B4FFF763
:1019B000FBFB03B048F20E7001B440F20400C4F225
:1019C000020001B4FFF754FC02B04BF6B03040F215
:1019D0002001C4F20201086040F6BB30CBF20000E7
:1019E00040F22401C4F202010860022001B44FF663
:1019F000387001B440F20040C4F2020001B4FFF7B5
:101A0000D3FB03B0002001B44FF6387001B440F2AC
:101A10000840C4F2020001B4FFF7C6FB03B0002087
:101A200001B44FF6387001B440F20C40C4F2020029
:101A300001B4FFF7B9FB03B04FF6387001B440F2C0
:101A40000440C4F2020001B4FFF712FC02B04BF2F2
:101A50000000C0F2BB0040F22041C4F20201086065
:101A60004BF6BB30CBF6BB3040F22441C4F202014E
:101A70000860022001B440F6CF7001B440F60000C7
:101A8000C4F2020001B4FFF78FFB03B0002001B4E1
:101A900040F6CF7001B440F60800C4F2020001B471
:101AA000FFF782FB03B0002001B440F6CF7001B411
:101AB00040F60C00C4F2020001B4FFF775FB03B05E
:101AC00040F6CF7001B440F60400C4F2020001B445
:101AD000FFF7CEFB02B04BF6BB30CBF6003040F642
:101AE0002001C4F2020108604BF6BB3040F624012D
:101AF000C4F20201086040F20020C1F2000001B40B
:101B000043F62400C4F2020001B4FFF7A3FB02B0C5
:101B10000120000201B447F20000C4F2000001B449
:101B2000FFF798FB02B00120C00501B443F6340072
:101B3000C4F2020001B4FFF78DFB02B00120C00522
:101B400001B443F63400C4F2020001B4FFF790FB85
:101B500002B00120000201B443F63400C4F20200D6
:101B600001B4FFF777FB02B00120400201B443F655
:101B70003400C4F2020001B4FFF7DBFE02B0012022
:101B8000400401B40120000401B443F63400C4F25F
:101B9000020001B4FFF74EFB03B0302001B4CC20AB
:101BA00001B442F20040C4F2000001B4FFF742FB6E
:101BB00003B041F60040C0F2FC3001B440F6000032
:101BC000C0F2041001B442F20440C4F2000001B4B7
:101BD000FFF730FB03B0202001B442F20840C4F20A
:101BE000000001B4FFF7A5FE02B0022001B40120FD
:101BF00001B442F20040C4F2000001B4FFF71AFB46
:101C000003B0112001B442F20840C4F2000001B454
:101C1000FFF78FFE02B0042001B442F20840C4F284
:101C2000000001B4FFF77AFE02B000A800210160B5
:101C3000009805280BDC0098013001B4019801B42C
:101C4000FFF705FE02B0009801300090F0E740F287
:101C50001C00C2F200007C30006801B4FFF7E2FD16
:101C600001B040F21C00C2F2000000F2081000684F
:101C700001B4FFF7D7FD01B040F21C00C2F2000032
:101C80004030006801B4FFF7CDFD01B0042001B47D
:101C900042F20840C4F2000001B4FFF7DBFA02B0E0
:101CA00001B000BD30BF704700B5002001B400A8EE
:101CB0004EF61051CEF2000109680160009804212F
:101CC00088434EF61051CEF200010860FFF7EAFF9C
:101CD000EDE701B000BDFFF737FEFFF7E5FFFEE7D8
:101CE000EFF3058001B500F001F801BD7047FFF783
:101CF000FDFFFEF785FB0098019991FBF0F21300C0
:0E1D00004343C91A01DA0918013A100070476E
:00000001FF
